{
	"IfElse.sol": {
		"IfElse": {
			"abi": [
				{
					"inputs": [
						{
							"internalType": "uint256",
							"name": "_num",
							"type": "uint256"
						}
					],
					"name": "get",
					"outputs": [
						{
							"internalType": "string",
							"name": "result",
							"type": "string"
						}
					],
					"stateMutability": "nonpayable",
					"type": "function"
				},
				{
					"inputs": [],
					"name": "myString",
					"outputs": [
						{
							"internalType": "string",
							"name": "",
							"type": "string"
						}
					],
					"stateMutability": "view",
					"type": "function"
				},
				{
					"inputs": [
						{
							"internalType": "uint256",
							"name": "_num",
							"type": "uint256"
						}
					],
					"name": "shortHand",
					"outputs": [
						{
							"internalType": "string",
							"name": "result",
							"type": "string"
						}
					],
					"stateMutability": "nonpayable",
					"type": "function"
				}
			],
			"devdoc": {
				"kind": "dev",
				"methods": {},
				"version": 1
			},
			"evm": {
				"assembly": "    /* \"IfElse.sol\":58:724  contract IfElse {... */\n  mstore(0x40, 0x80)\n    /* \"IfElse.sol\":97:98  5 */\n  0x05\n    /* \"IfElse.sol\":81:98  uint256 myNum = 5 */\n  0x00\n  sstore\n    /* \"IfElse.sol\":58:724  contract IfElse {... */\n  callvalue\n  dup1\n  iszero\n  tag_1\n  jumpi\n  0x00\n  dup1\n  revert\ntag_1:\n  pop\n  dataSize(sub_0)\n  dup1\n  dataOffset(sub_0)\n  0x00\n  codecopy\n  0x00\n  return\nstop\n\nsub_0: assembly {\n        /* \"IfElse.sol\":58:724  contract IfElse {... */\n      mstore(0x40, 0x80)\n      callvalue\n      dup1\n      iszero\n      tag_1\n      jumpi\n      0x00\n      dup1\n      revert\n    tag_1:\n      pop\n      jumpi(tag_2, lt(calldatasize, 0x04))\n      shr(0xe0, calldataload(0x00))\n      dup1\n      0x2dbceaff\n      eq\n      tag_3\n      jumpi\n      dup1\n      0x492bfa18\n      eq\n      tag_4\n      jumpi\n      dup1\n      0x9507d39a\n      eq\n      tag_5\n      jumpi\n    tag_2:\n      0x00\n      dup1\n      revert\n        /* \"IfElse.sol\":435:721  function shortHand(uint256 _num) public returns (string memory result) {... */\n    tag_3:\n      tag_6\n      0x04\n      dup1\n      calldatasize\n      sub\n      dup2\n      add\n      swap1\n      tag_7\n      swap2\n      swap1\n      tag_8\n      jump\t// in\n    tag_7:\n      tag_9\n      jump\t// in\n    tag_6:\n      mload(0x40)\n      tag_10\n      swap2\n      swap1\n      tag_11\n      jump\t// in\n    tag_10:\n      mload(0x40)\n      dup1\n      swap2\n      sub\n      swap1\n      return\n        /* \"IfElse.sol\":104:126  string public myString */\n    tag_4:\n      tag_12\n      tag_13\n      jump\t// in\n    tag_12:\n      mload(0x40)\n      tag_14\n      swap2\n      swap1\n      tag_11\n      jump\t// in\n    tag_14:\n      mload(0x40)\n      dup1\n      swap2\n      sub\n      swap1\n      return\n        /* \"IfElse.sol\":133:429  function get(uint256 _num) public returns (string memory result) {... */\n    tag_5:\n      tag_15\n      0x04\n      dup1\n      calldatasize\n      sub\n      dup2\n      add\n      swap1\n      tag_16\n      swap2\n      swap1\n      tag_8\n      jump\t// in\n    tag_16:\n      tag_17\n      jump\t// in\n    tag_15:\n      mload(0x40)\n      tag_18\n      swap2\n      swap1\n      tag_11\n      jump\t// in\n    tag_18:\n      mload(0x40)\n      dup1\n      swap2\n      sub\n      swap1\n      return\n        /* \"IfElse.sol\":435:721  function shortHand(uint256 _num) public returns (string memory result) {... */\n    tag_9:\n        /* \"IfElse.sol\":484:504  string memory result */\n      0x60\n        /* \"IfElse.sol\":667:668  5 */\n      0x05\n        /* \"IfElse.sol\":659:663  _num */\n      dup3\n        /* \"IfElse.sol\":659:668  _num == 5 */\n      eq\n        /* \"IfElse.sol\":659:714  _num == 5 ? myString = \"daulat\" : myString = \"No buddy\" */\n      tag_20\n      jumpi\n        /* \"IfElse.sol\":693:714  myString = \"No buddy\" */\n      mload(0x40)\n      dup1\n      0x40\n      add\n      0x40\n      mstore\n      dup1\n      0x08\n      dup2\n      mstore\n      0x20\n      add\n      0x4e6f206275646479000000000000000000000000000000000000000000000000\n      dup2\n      mstore\n      pop\n        /* \"IfElse.sol\":693:701  myString */\n      0x01\n        /* \"IfElse.sol\":693:714  myString = \"No buddy\" */\n      swap1\n      dup2\n      tag_21\n      swap2\n      swap1\n      tag_22\n      jump\t// in\n    tag_21:\n        /* \"IfElse.sol\":659:714  _num == 5 ? myString = \"daulat\" : myString = \"No buddy\" */\n      jump(tag_23)\n    tag_20:\n        /* \"IfElse.sol\":671:690  myString = \"daulat\" */\n      mload(0x40)\n      dup1\n      0x40\n      add\n      0x40\n      mstore\n      dup1\n      0x06\n      dup2\n      mstore\n      0x20\n      add\n      0x6461756c61740000000000000000000000000000000000000000000000000000\n      dup2\n      mstore\n      pop\n        /* \"IfElse.sol\":671:679  myString */\n      0x01\n        /* \"IfElse.sol\":671:690  myString = \"daulat\" */\n      swap1\n      dup2\n      tag_24\n      swap2\n      swap1\n      tag_22\n      jump\t// in\n    tag_24:\n        /* \"IfElse.sol\":659:714  _num == 5 ? myString = \"daulat\" : myString = \"No buddy\" */\n    tag_23:\n        /* \"IfElse.sol\":652:714  return _num == 5 ? myString = \"daulat\" : myString = \"No buddy\" */\n      dup1\n      sload\n      tag_25\n      swap1\n      tag_26\n      jump\t// in\n    tag_25:\n      dup1\n      0x1f\n      add\n      0x20\n      dup1\n      swap2\n      div\n      mul\n      0x20\n      add\n      mload(0x40)\n      swap1\n      dup2\n      add\n      0x40\n      mstore\n      dup1\n      swap3\n      swap2\n      swap1\n      dup2\n      dup2\n      mstore\n      0x20\n      add\n      dup3\n      dup1\n      sload\n      tag_27\n      swap1\n      tag_26\n      jump\t// in\n    tag_27:\n      dup1\n      iszero\n      tag_28\n      jumpi\n      dup1\n      0x1f\n      lt\n      tag_29\n      jumpi\n      0x0100\n      dup1\n      dup4\n      sload\n      div\n      mul\n      dup4\n      mstore\n      swap2\n      0x20\n      add\n      swap2\n      jump(tag_28)\n    tag_29:\n      dup3\n      add\n      swap2\n      swap1\n      0x00\n      mstore\n      keccak256(0x00, 0x20)\n      swap1\n    tag_30:\n      dup2\n      sload\n      dup2\n      mstore\n      swap1\n      0x01\n      add\n      swap1\n      0x20\n      add\n      dup1\n      dup4\n      gt\n      tag_30\n      jumpi\n      dup3\n      swap1\n      sub\n      0x1f\n      and\n      dup3\n      add\n      swap2\n    tag_28:\n      pop\n      pop\n      pop\n      pop\n      pop\n      swap1\n      pop\n        /* \"IfElse.sol\":435:721  function shortHand(uint256 _num) public returns (string memory result) {... */\n      swap2\n      swap1\n      pop\n      jump\t// out\n        /* \"IfElse.sol\":104:126  string public myString */\n    tag_13:\n      0x01\n      dup1\n      sload\n      tag_31\n      swap1\n      tag_26\n      jump\t// in\n    tag_31:\n      dup1\n      0x1f\n      add\n      0x20\n      dup1\n      swap2\n      div\n      mul\n      0x20\n      add\n      mload(0x40)\n      swap1\n      dup2\n      add\n      0x40\n      mstore\n      dup1\n      swap3\n      swap2\n      swap1\n      dup2\n      dup2\n      mstore\n      0x20\n      add\n      dup3\n      dup1\n      sload\n      tag_32\n      swap1\n      tag_26\n      jump\t// in\n    tag_32:\n      dup1\n      iszero\n      tag_33\n      jumpi\n      dup1\n      0x1f\n      lt\n      tag_34\n      jumpi\n      0x0100\n      dup1\n      dup4\n      sload\n      div\n      mul\n      dup4\n      mstore\n      swap2\n      0x20\n      add\n      swap2\n      jump(tag_33)\n    tag_34:\n      dup3\n      add\n      swap2\n      swap1\n      0x00\n      mstore\n      keccak256(0x00, 0x20)\n      swap1\n    tag_35:\n      dup2\n      sload\n      dup2\n      mstore\n      swap1\n      0x01\n      add\n      swap1\n      0x20\n      add\n      dup1\n      dup4\n      gt\n      tag_35\n      jumpi\n      dup3\n      swap1\n      sub\n      0x1f\n      and\n      dup3\n      add\n      swap2\n    tag_33:\n      pop\n      pop\n      pop\n      pop\n      pop\n      dup2\n      jump\t// out\n        /* \"IfElse.sol\":133:429  function get(uint256 _num) public returns (string memory result) {... */\n    tag_17:\n        /* \"IfElse.sol\":176:196  string memory result */\n      0x60\n        /* \"IfElse.sol\":220:221  5 */\n      0x05\n        /* \"IfElse.sol\":212:216  _num */\n      dup3\n        /* \"IfElse.sol\":212:221  _num == 5 */\n      sub\n        /* \"IfElse.sol\":208:396  if (_num == 5) {... */\n      tag_37\n      jumpi\n        /* \"IfElse.sol\":237:268  myString = \"Hey the value is 5\" */\n      mload(0x40)\n      dup1\n      0x40\n      add\n      0x40\n      mstore\n      dup1\n      0x12\n      dup2\n      mstore\n      0x20\n      add\n      0x486579207468652076616c756520697320350000000000000000000000000000\n      dup2\n      mstore\n      pop\n        /* \"IfElse.sol\":237:245  myString */\n      0x01\n        /* \"IfElse.sol\":237:268  myString = \"Hey the value is 5\" */\n      swap1\n      dup2\n      tag_38\n      swap2\n      swap1\n      tag_22\n      jump\t// in\n    tag_38:\n      pop\n        /* \"IfElse.sol\":208:396  if (_num == 5) {... */\n      jump(tag_39)\n    tag_37:\n        /* \"IfElse.sol\":297:298  4 */\n      0x04\n        /* \"IfElse.sol\":289:293  _num */\n      dup3\n        /* \"IfElse.sol\":289:298  _num == 4 */\n      sub\n        /* \"IfElse.sol\":285:396  if (_num == 4) {... */\n      tag_40\n      jumpi\n        /* \"IfElse.sol\":314:332  myString = \"Not 5\" */\n      mload(0x40)\n      dup1\n      0x40\n      add\n      0x40\n      mstore\n      dup1\n      0x05\n      dup2\n      mstore\n      0x20\n      add\n      0x4e6f742035000000000000000000000000000000000000000000000000000000\n      dup2\n      mstore\n      pop\n        /* \"IfElse.sol\":314:322  myString */\n      0x01\n        /* \"IfElse.sol\":314:332  myString = \"Not 5\" */\n      swap1\n      dup2\n      tag_41\n      swap2\n      swap1\n      tag_22\n      jump\t// in\n    tag_41:\n      pop\n        /* \"IfElse.sol\":285:396  if (_num == 4) {... */\n      jump(tag_42)\n    tag_40:\n        /* \"IfElse.sol\":363:385  myString = \"He daulat\" */\n      mload(0x40)\n      dup1\n      0x40\n      add\n      0x40\n      mstore\n      dup1\n      0x09\n      dup2\n      mstore\n      0x20\n      add\n      0x4865206461756c61740000000000000000000000000000000000000000000000\n      dup2\n      mstore\n      pop\n        /* \"IfElse.sol\":363:371  myString */\n      0x01\n        /* \"IfElse.sol\":363:385  myString = \"He daulat\" */\n      swap1\n      dup2\n      tag_43\n      swap2\n      swap1\n      tag_22\n      jump\t// in\n    tag_43:\n      pop\n        /* \"IfElse.sol\":285:396  if (_num == 4) {... */\n    tag_42:\n        /* \"IfElse.sol\":208:396  if (_num == 5) {... */\n    tag_39:\n        /* \"IfElse.sol\":414:422  myString */\n      0x01\n        /* \"IfElse.sol\":405:422  result = myString */\n      dup1\n      sload\n      tag_44\n      swap1\n      tag_26\n      jump\t// in\n    tag_44:\n      dup1\n      0x1f\n      add\n      0x20\n      dup1\n      swap2\n      div\n      mul\n      0x20\n      add\n      mload(0x40)\n      swap1\n      dup2\n      add\n      0x40\n      mstore\n      dup1\n      swap3\n      swap2\n      swap1\n      dup2\n      dup2\n      mstore\n      0x20\n      add\n      dup3\n      dup1\n      sload\n      tag_45\n      swap1\n      tag_26\n      jump\t// in\n    tag_45:\n      dup1\n      iszero\n      tag_46\n      jumpi\n      dup1\n      0x1f\n      lt\n      tag_47\n      jumpi\n      0x0100\n      dup1\n      dup4\n      sload\n      div\n      mul\n      dup4\n      mstore\n      swap2\n      0x20\n      add\n      swap2\n      jump(tag_46)\n    tag_47:\n      dup3\n      add\n      swap2\n      swap1\n      0x00\n      mstore\n      keccak256(0x00, 0x20)\n      swap1\n    tag_48:\n      dup2\n      sload\n      dup2\n      mstore\n      swap1\n      0x01\n      add\n      swap1\n      0x20\n      add\n      dup1\n      dup4\n      gt\n      tag_48\n      jumpi\n      dup3\n      swap1\n      sub\n      0x1f\n      and\n      dup3\n      add\n      swap2\n    tag_46:\n      pop\n      pop\n      pop\n      pop\n      pop\n      swap1\n      pop\n        /* \"IfElse.sol\":133:429  function get(uint256 _num) public returns (string memory result) {... */\n      swap2\n      swap1\n      pop\n      jump\t// out\n        /* \"#utility.yul\":88:205   */\n    tag_50:\n        /* \"#utility.yul\":197:198   */\n      0x00\n        /* \"#utility.yul\":194:195   */\n      dup1\n        /* \"#utility.yul\":187:199   */\n      revert\n        /* \"#utility.yul\":334:411   */\n    tag_52:\n        /* \"#utility.yul\":371:378   */\n      0x00\n        /* \"#utility.yul\":400:405   */\n      dup2\n        /* \"#utility.yul\":389:405   */\n      swap1\n      pop\n        /* \"#utility.yul\":334:411   */\n      swap2\n      swap1\n      pop\n      jump\t// out\n        /* \"#utility.yul\":417:539   */\n    tag_53:\n        /* \"#utility.yul\":490:514   */\n      tag_83\n        /* \"#utility.yul\":508:513   */\n      dup2\n        /* \"#utility.yul\":490:514   */\n      tag_52\n      jump\t// in\n    tag_83:\n        /* \"#utility.yul\":483:488   */\n      dup2\n        /* \"#utility.yul\":480:515   */\n      eq\n        /* \"#utility.yul\":470:533   */\n      tag_84\n      jumpi\n        /* \"#utility.yul\":529:530   */\n      0x00\n        /* \"#utility.yul\":526:527   */\n      dup1\n        /* \"#utility.yul\":519:531   */\n      revert\n        /* \"#utility.yul\":470:533   */\n    tag_84:\n        /* \"#utility.yul\":417:539   */\n      pop\n      jump\t// out\n        /* \"#utility.yul\":545:684   */\n    tag_54:\n        /* \"#utility.yul\":591:596   */\n      0x00\n        /* \"#utility.yul\":629:635   */\n      dup2\n        /* \"#utility.yul\":616:636   */\n      calldataload\n        /* \"#utility.yul\":607:636   */\n      swap1\n      pop\n        /* \"#utility.yul\":645:678   */\n      tag_86\n        /* \"#utility.yul\":672:677   */\n      dup2\n        /* \"#utility.yul\":645:678   */\n      tag_53\n      jump\t// in\n    tag_86:\n        /* \"#utility.yul\":545:684   */\n      swap3\n      swap2\n      pop\n      pop\n      jump\t// out\n        /* \"#utility.yul\":690:1019   */\n    tag_8:\n        /* \"#utility.yul\":749:755   */\n      0x00\n        /* \"#utility.yul\":798:800   */\n      0x20\n        /* \"#utility.yul\":786:795   */\n      dup3\n        /* \"#utility.yul\":777:784   */\n      dup5\n        /* \"#utility.yul\":773:796   */\n      sub\n        /* \"#utility.yul\":769:801   */\n      slt\n        /* \"#utility.yul\":766:885   */\n      iszero\n      tag_88\n      jumpi\n        /* \"#utility.yul\":804:883   */\n      tag_89\n      tag_50\n      jump\t// in\n    tag_89:\n        /* \"#utility.yul\":766:885   */\n    tag_88:\n        /* \"#utility.yul\":924:925   */\n      0x00\n        /* \"#utility.yul\":949:1002   */\n      tag_90\n        /* \"#utility.yul\":994:1001   */\n      dup5\n        /* \"#utility.yul\":985:991   */\n      dup3\n        /* \"#utility.yul\":974:983   */\n      dup6\n        /* \"#utility.yul\":970:992   */\n      add\n        /* \"#utility.yul\":949:1002   */\n      tag_54\n      jump\t// in\n    tag_90:\n        /* \"#utility.yul\":939:1002   */\n      swap2\n      pop\n        /* \"#utility.yul\":895:1012   */\n      pop\n        /* \"#utility.yul\":690:1019   */\n      swap3\n      swap2\n      pop\n      pop\n      jump\t// out\n        /* \"#utility.yul\":1025:1124   */\n    tag_55:\n        /* \"#utility.yul\":1077:1083   */\n      0x00\n        /* \"#utility.yul\":1111:1116   */\n      dup2\n        /* \"#utility.yul\":1105:1117   */\n      mload\n        /* \"#utility.yul\":1095:1117   */\n      swap1\n      pop\n        /* \"#utility.yul\":1025:1124   */\n      swap2\n      swap1\n      pop\n      jump\t// out\n        /* \"#utility.yul\":1130:1299   */\n    tag_56:\n        /* \"#utility.yul\":1214:1225   */\n      0x00\n        /* \"#utility.yul\":1248:1254   */\n      dup3\n        /* \"#utility.yul\":1243:1246   */\n      dup3\n        /* \"#utility.yul\":1236:1255   */\n      mstore\n        /* \"#utility.yul\":1288:1292   */\n      0x20\n        /* \"#utility.yul\":1283:1286   */\n      dup3\n        /* \"#utility.yul\":1279:1293   */\n      add\n        /* \"#utility.yul\":1264:1293   */\n      swap1\n      pop\n        /* \"#utility.yul\":1130:1299   */\n      swap3\n      swap2\n      pop\n      pop\n      jump\t// out\n        /* \"#utility.yul\":1305:1444   */\n    tag_57:\n        /* \"#utility.yul\":1394:1400   */\n      dup3\n        /* \"#utility.yul\":1389:1392   */\n      dup2\n        /* \"#utility.yul\":1384:1387   */\n      dup4\n        /* \"#utility.yul\":1378:1401   */\n      mcopy\n        /* \"#utility.yul\":1435:1436   */\n      0x00\n        /* \"#utility.yul\":1426:1432   */\n      dup4\n        /* \"#utility.yul\":1421:1424   */\n      dup4\n        /* \"#utility.yul\":1417:1433   */\n      add\n        /* \"#utility.yul\":1410:1437   */\n      mstore\n        /* \"#utility.yul\":1305:1444   */\n      pop\n      pop\n      pop\n      jump\t// out\n        /* \"#utility.yul\":1450:1552   */\n    tag_58:\n        /* \"#utility.yul\":1491:1497   */\n      0x00\n        /* \"#utility.yul\":1542:1544   */\n      0x1f\n        /* \"#utility.yul\":1538:1545   */\n      not\n        /* \"#utility.yul\":1533:1535   */\n      0x1f\n        /* \"#utility.yul\":1526:1531   */\n      dup4\n        /* \"#utility.yul\":1522:1536   */\n      add\n        /* \"#utility.yul\":1518:1546   */\n      and\n        /* \"#utility.yul\":1508:1546   */\n      swap1\n      pop\n        /* \"#utility.yul\":1450:1552   */\n      swap2\n      swap1\n      pop\n      jump\t// out\n        /* \"#utility.yul\":1558:1935   */\n    tag_59:\n        /* \"#utility.yul\":1646:1649   */\n      0x00\n        /* \"#utility.yul\":1674:1713   */\n      tag_96\n        /* \"#utility.yul\":1707:1712   */\n      dup3\n        /* \"#utility.yul\":1674:1713   */\n      tag_55\n      jump\t// in\n    tag_96:\n        /* \"#utility.yul\":1729:1800   */\n      tag_97\n        /* \"#utility.yul\":1793:1799   */\n      dup2\n        /* \"#utility.yul\":1788:1791   */\n      dup6\n        /* \"#utility.yul\":1729:1800   */\n      tag_56\n      jump\t// in\n    tag_97:\n        /* \"#utility.yul\":1722:1800   */\n      swap4\n      pop\n        /* \"#utility.yul\":1809:1874   */\n      tag_98\n        /* \"#utility.yul\":1867:1873   */\n      dup2\n        /* \"#utility.yul\":1862:1865   */\n      dup6\n        /* \"#utility.yul\":1855:1859   */\n      0x20\n        /* \"#utility.yul\":1848:1853   */\n      dup7\n        /* \"#utility.yul\":1844:1860   */\n      add\n        /* \"#utility.yul\":1809:1874   */\n      tag_57\n      jump\t// in\n    tag_98:\n        /* \"#utility.yul\":1899:1928   */\n      tag_99\n        /* \"#utility.yul\":1921:1927   */\n      dup2\n        /* \"#utility.yul\":1899:1928   */\n      tag_58\n      jump\t// in\n    tag_99:\n        /* \"#utility.yul\":1894:1897   */\n      dup5\n        /* \"#utility.yul\":1890:1929   */\n      add\n        /* \"#utility.yul\":1883:1929   */\n      swap2\n      pop\n        /* \"#utility.yul\":1650:1935   */\n      pop\n        /* \"#utility.yul\":1558:1935   */\n      swap3\n      swap2\n      pop\n      pop\n      jump\t// out\n        /* \"#utility.yul\":1941:2254   */\n    tag_11:\n        /* \"#utility.yul\":2054:2058   */\n      0x00\n        /* \"#utility.yul\":2092:2094   */\n      0x20\n        /* \"#utility.yul\":2081:2090   */\n      dup3\n        /* \"#utility.yul\":2077:2095   */\n      add\n        /* \"#utility.yul\":2069:2095   */\n      swap1\n      pop\n        /* \"#utility.yul\":2141:2150   */\n      dup2\n        /* \"#utility.yul\":2135:2139   */\n      dup2\n        /* \"#utility.yul\":2131:2151   */\n      sub\n        /* \"#utility.yul\":2127:2128   */\n      0x00\n        /* \"#utility.yul\":2116:2125   */\n      dup4\n        /* \"#utility.yul\":2112:2129   */\n      add\n        /* \"#utility.yul\":2105:2152   */\n      mstore\n        /* \"#utility.yul\":2169:2247   */\n      tag_101\n        /* \"#utility.yul\":2242:2246   */\n      dup2\n        /* \"#utility.yul\":2233:2239   */\n      dup5\n        /* \"#utility.yul\":2169:2247   */\n      tag_59\n      jump\t// in\n    tag_101:\n        /* \"#utility.yul\":2161:2247   */\n      swap1\n      pop\n        /* \"#utility.yul\":1941:2254   */\n      swap3\n      swap2\n      pop\n      pop\n      jump\t// out\n        /* \"#utility.yul\":2260:2440   */\n    tag_60:\n        /* \"#utility.yul\":2308:2385   */\n      0x4e487b7100000000000000000000000000000000000000000000000000000000\n        /* \"#utility.yul\":2305:2306   */\n      0x00\n        /* \"#utility.yul\":2298:2386   */\n      mstore\n        /* \"#utility.yul\":2405:2409   */\n      0x41\n        /* \"#utility.yul\":2402:2403   */\n      0x04\n        /* \"#utility.yul\":2395:2410   */\n      mstore\n        /* \"#utility.yul\":2429:2433   */\n      0x24\n        /* \"#utility.yul\":2426:2427   */\n      0x00\n        /* \"#utility.yul\":2419:2434   */\n      revert\n        /* \"#utility.yul\":2446:2626   */\n    tag_61:\n        /* \"#utility.yul\":2494:2571   */\n      0x4e487b7100000000000000000000000000000000000000000000000000000000\n        /* \"#utility.yul\":2491:2492   */\n      0x00\n        /* \"#utility.yul\":2484:2572   */\n      mstore\n        /* \"#utility.yul\":2591:2595   */\n      0x22\n        /* \"#utility.yul\":2588:2589   */\n      0x04\n        /* \"#utility.yul\":2581:2596   */\n      mstore\n        /* \"#utility.yul\":2615:2619   */\n      0x24\n        /* \"#utility.yul\":2612:2613   */\n      0x00\n        /* \"#utility.yul\":2605:2620   */\n      revert\n        /* \"#utility.yul\":2632:2952   */\n    tag_26:\n        /* \"#utility.yul\":2676:2682   */\n      0x00\n        /* \"#utility.yul\":2713:2714   */\n      0x02\n        /* \"#utility.yul\":2707:2711   */\n      dup3\n        /* \"#utility.yul\":2703:2715   */\n      div\n        /* \"#utility.yul\":2693:2715   */\n      swap1\n      pop\n        /* \"#utility.yul\":2760:2761   */\n      0x01\n        /* \"#utility.yul\":2754:2758   */\n      dup3\n        /* \"#utility.yul\":2750:2762   */\n      and\n        /* \"#utility.yul\":2781:2799   */\n      dup1\n        /* \"#utility.yul\":2771:2852   */\n      tag_105\n      jumpi\n        /* \"#utility.yul\":2837:2841   */\n      0x7f\n        /* \"#utility.yul\":2829:2835   */\n      dup3\n        /* \"#utility.yul\":2825:2842   */\n      and\n        /* \"#utility.yul\":2815:2842   */\n      swap2\n      pop\n        /* \"#utility.yul\":2771:2852   */\n    tag_105:\n        /* \"#utility.yul\":2899:2901   */\n      0x20\n        /* \"#utility.yul\":2891:2897   */\n      dup3\n        /* \"#utility.yul\":2888:2902   */\n      lt\n        /* \"#utility.yul\":2868:2886   */\n      dup2\n        /* \"#utility.yul\":2865:2903   */\n      sub\n        /* \"#utility.yul\":2862:2946   */\n      tag_106\n      jumpi\n        /* \"#utility.yul\":2918:2936   */\n      tag_107\n      tag_61\n      jump\t// in\n    tag_107:\n        /* \"#utility.yul\":2862:2946   */\n    tag_106:\n        /* \"#utility.yul\":2683:2952   */\n      pop\n        /* \"#utility.yul\":2632:2952   */\n      swap2\n      swap1\n      pop\n      jump\t// out\n        /* \"#utility.yul\":2958:3099   */\n    tag_62:\n        /* \"#utility.yul\":3007:3011   */\n      0x00\n        /* \"#utility.yul\":3030:3033   */\n      dup2\n        /* \"#utility.yul\":3022:3033   */\n      swap1\n      pop\n        /* \"#utility.yul\":3053:3056   */\n      dup2\n        /* \"#utility.yul\":3050:3051   */\n      0x00\n        /* \"#utility.yul\":3043:3057   */\n      mstore\n        /* \"#utility.yul\":3087:3091   */\n      0x20\n        /* \"#utility.yul\":3084:3085   */\n      0x00\n        /* \"#utility.yul\":3074:3092   */\n      keccak256\n        /* \"#utility.yul\":3066:3092   */\n      swap1\n      pop\n        /* \"#utility.yul\":2958:3099   */\n      swap2\n      swap1\n      pop\n      jump\t// out\n        /* \"#utility.yul\":3105:3198   */\n    tag_63:\n        /* \"#utility.yul\":3142:3148   */\n      0x00\n        /* \"#utility.yul\":3189:3191   */\n      0x20\n        /* \"#utility.yul\":3184:3186   */\n      0x1f\n        /* \"#utility.yul\":3177:3182   */\n      dup4\n        /* \"#utility.yul\":3173:3187   */\n      add\n        /* \"#utility.yul\":3169:3192   */\n      div\n        /* \"#utility.yul\":3159:3192   */\n      swap1\n      pop\n        /* \"#utility.yul\":3105:3198   */\n      swap2\n      swap1\n      pop\n      jump\t// out\n        /* \"#utility.yul\":3204:3311   */\n    tag_64:\n        /* \"#utility.yul\":3248:3256   */\n      0x00\n        /* \"#utility.yul\":3298:3303   */\n      dup3\n        /* \"#utility.yul\":3292:3296   */\n      dup3\n        /* \"#utility.yul\":3288:3304   */\n      shl\n        /* \"#utility.yul\":3267:3304   */\n      swap1\n      pop\n        /* \"#utility.yul\":3204:3311   */\n      swap3\n      swap2\n      pop\n      pop\n      jump\t// out\n        /* \"#utility.yul\":3317:3710   */\n    tag_65:\n        /* \"#utility.yul\":3386:3392   */\n      0x00\n        /* \"#utility.yul\":3436:3437   */\n      0x08\n        /* \"#utility.yul\":3424:3434   */\n      dup4\n        /* \"#utility.yul\":3420:3438   */\n      mul\n        /* \"#utility.yul\":3459:3556   */\n      tag_112\n        /* \"#utility.yul\":3489:3555   */\n      0xffffffffffffffffffffffffffffffffffffffffffffffffffffffffffffffff\n        /* \"#utility.yul\":3478:3487   */\n      dup3\n        /* \"#utility.yul\":3459:3556   */\n      tag_64\n      jump\t// in\n    tag_112:\n        /* \"#utility.yul\":3577:3616   */\n      tag_113\n        /* \"#utility.yul\":3607:3615   */\n      dup7\n        /* \"#utility.yul\":3596:3605   */\n      dup4\n        /* \"#utility.yul\":3577:3616   */\n      tag_64\n      jump\t// in\n    tag_113:\n        /* \"#utility.yul\":3565:3616   */\n      swap6\n      pop\n        /* \"#utility.yul\":3649:3653   */\n      dup1\n        /* \"#utility.yul\":3645:3654   */\n      not\n        /* \"#utility.yul\":3638:3643   */\n      dup5\n        /* \"#utility.yul\":3634:3655   */\n      and\n        /* \"#utility.yul\":3625:3655   */\n      swap4\n      pop\n        /* \"#utility.yul\":3698:3702   */\n      dup1\n        /* \"#utility.yul\":3688:3696   */\n      dup7\n        /* \"#utility.yul\":3684:3703   */\n      and\n        /* \"#utility.yul\":3677:3682   */\n      dup5\n        /* \"#utility.yul\":3674:3704   */\n      or\n        /* \"#utility.yul\":3664:3704   */\n      swap3\n      pop\n        /* \"#utility.yul\":3393:3710   */\n      pop\n      pop\n        /* \"#utility.yul\":3317:3710   */\n      swap4\n      swap3\n      pop\n      pop\n      pop\n      jump\t// out\n        /* \"#utility.yul\":3716:3776   */\n    tag_66:\n        /* \"#utility.yul\":3744:3747   */\n      0x00\n        /* \"#utility.yul\":3765:3770   */\n      dup2\n        /* \"#utility.yul\":3758:3770   */\n      swap1\n      pop\n        /* \"#utility.yul\":3716:3776   */\n      swap2\n      swap1\n      pop\n      jump\t// out\n        /* \"#utility.yul\":3782:3924   */\n    tag_67:\n        /* \"#utility.yul\":3832:3841   */\n      0x00\n        /* \"#utility.yul\":3865:3918   */\n      tag_116\n        /* \"#utility.yul\":3883:3917   */\n      tag_117\n        /* \"#utility.yul\":3892:3916   */\n      tag_118\n        /* \"#utility.yul\":3910:3915   */\n      dup5\n        /* \"#utility.yul\":3892:3916   */\n      tag_52\n      jump\t// in\n    tag_118:\n        /* \"#utility.yul\":3883:3917   */\n      tag_66\n      jump\t// in\n    tag_117:\n        /* \"#utility.yul\":3865:3918   */\n      tag_52\n      jump\t// in\n    tag_116:\n        /* \"#utility.yul\":3852:3918   */\n      swap1\n      pop\n        /* \"#utility.yul\":3782:3924   */\n      swap2\n      swap1\n      pop\n      jump\t// out\n        /* \"#utility.yul\":3930:4005   */\n    tag_68:\n        /* \"#utility.yul\":3973:3976   */\n      0x00\n        /* \"#utility.yul\":3994:3999   */\n      dup2\n        /* \"#utility.yul\":3987:3999   */\n      swap1\n      pop\n        /* \"#utility.yul\":3930:4005   */\n      swap2\n      swap1\n      pop\n      jump\t// out\n        /* \"#utility.yul\":4011:4280   */\n    tag_69:\n        /* \"#utility.yul\":4121:4160   */\n      tag_121\n        /* \"#utility.yul\":4152:4159   */\n      dup4\n        /* \"#utility.yul\":4121:4160   */\n      tag_67\n      jump\t// in\n    tag_121:\n        /* \"#utility.yul\":4182:4273   */\n      tag_122\n        /* \"#utility.yul\":4231:4272   */\n      tag_123\n        /* \"#utility.yul\":4255:4271   */\n      dup3\n        /* \"#utility.yul\":4231:4272   */\n      tag_68\n      jump\t// in\n    tag_123:\n        /* \"#utility.yul\":4223:4229   */\n      dup5\n        /* \"#utility.yul\":4216:4220   */\n      dup5\n        /* \"#utility.yul\":4210:4221   */\n      sload\n        /* \"#utility.yul\":4182:4273   */\n      tag_65\n      jump\t// in\n    tag_122:\n        /* \"#utility.yul\":4176:4180   */\n      dup3\n        /* \"#utility.yul\":4169:4274   */\n      sstore\n        /* \"#utility.yul\":4087:4280   */\n      pop\n        /* \"#utility.yul\":4011:4280   */\n      pop\n      pop\n      pop\n      jump\t// out\n        /* \"#utility.yul\":4286:4359   */\n    tag_70:\n        /* \"#utility.yul\":4331:4334   */\n      0x00\n        /* \"#utility.yul\":4286:4359   */\n      swap1\n      jump\t// out\n        /* \"#utility.yul\":4365:4554   */\n    tag_71:\n        /* \"#utility.yul\":4442:4474   */\n      tag_126\n      tag_70\n      jump\t// in\n    tag_126:\n        /* \"#utility.yul\":4483:4548   */\n      tag_127\n        /* \"#utility.yul\":4541:4547   */\n      dup2\n        /* \"#utility.yul\":4533:4539   */\n      dup5\n        /* \"#utility.yul\":4527:4531   */\n      dup5\n        /* \"#utility.yul\":4483:4548   */\n      tag_69\n      jump\t// in\n    tag_127:\n        /* \"#utility.yul\":4418:4554   */\n      pop\n        /* \"#utility.yul\":4365:4554   */\n      pop\n      pop\n      jump\t// out\n        /* \"#utility.yul\":4560:4746   */\n    tag_72:\n        /* \"#utility.yul\":4620:4740   */\n    tag_129:\n        /* \"#utility.yul\":4637:4640   */\n      dup2\n        /* \"#utility.yul\":4630:4635   */\n      dup2\n        /* \"#utility.yul\":4627:4641   */\n      lt\n        /* \"#utility.yul\":4620:4740   */\n      iszero\n      tag_131\n      jumpi\n        /* \"#utility.yul\":4691:4730   */\n      tag_132\n        /* \"#utility.yul\":4728:4729   */\n      0x00\n        /* \"#utility.yul\":4721:4726   */\n      dup3\n        /* \"#utility.yul\":4691:4730   */\n      tag_71\n      jump\t// in\n    tag_132:\n        /* \"#utility.yul\":4664:4665   */\n      0x01\n        /* \"#utility.yul\":4657:4662   */\n      dup2\n        /* \"#utility.yul\":4653:4666   */\n      add\n        /* \"#utility.yul\":4644:4666   */\n      swap1\n      pop\n        /* \"#utility.yul\":4620:4740   */\n      jump(tag_129)\n    tag_131:\n        /* \"#utility.yul\":4560:4746   */\n      pop\n      pop\n      jump\t// out\n        /* \"#utility.yul\":4752:5295   */\n    tag_73:\n        /* \"#utility.yul\":4853:4855   */\n      0x1f\n        /* \"#utility.yul\":4848:4851   */\n      dup3\n        /* \"#utility.yul\":4845:4856   */\n      gt\n        /* \"#utility.yul\":4842:5288   */\n      iszero\n      tag_134\n      jumpi\n        /* \"#utility.yul\":4887:4925   */\n      tag_135\n        /* \"#utility.yul\":4919:4924   */\n      dup2\n        /* \"#utility.yul\":4887:4925   */\n      tag_62\n      jump\t// in\n    tag_135:\n        /* \"#utility.yul\":4971:5000   */\n      tag_136\n        /* \"#utility.yul\":4989:4999   */\n      dup5\n        /* \"#utility.yul\":4971:5000   */\n      tag_63\n      jump\t// in\n    tag_136:\n        /* \"#utility.yul\":4961:4969   */\n      dup2\n        /* \"#utility.yul\":4957:5001   */\n      add\n        /* \"#utility.yul\":5154:5156   */\n      0x20\n        /* \"#utility.yul\":5142:5152   */\n      dup6\n        /* \"#utility.yul\":5139:5157   */\n      lt\n        /* \"#utility.yul\":5136:5185   */\n      iszero\n      tag_137\n      jumpi\n        /* \"#utility.yul\":5175:5183   */\n      dup2\n        /* \"#utility.yul\":5160:5183   */\n      swap1\n      pop\n        /* \"#utility.yul\":5136:5185   */\n    tag_137:\n        /* \"#utility.yul\":5198:5278   */\n      tag_138\n        /* \"#utility.yul\":5254:5276   */\n      tag_139\n        /* \"#utility.yul\":5272:5275   */\n      dup6\n        /* \"#utility.yul\":5254:5276   */\n      tag_63\n      jump\t// in\n    tag_139:\n        /* \"#utility.yul\":5244:5252   */\n      dup4\n        /* \"#utility.yul\":5240:5277   */\n      add\n        /* \"#utility.yul\":5227:5238   */\n      dup3\n        /* \"#utility.yul\":5198:5278   */\n      tag_72\n      jump\t// in\n    tag_138:\n        /* \"#utility.yul\":4857:5288   */\n      pop\n      pop\n        /* \"#utility.yul\":4842:5288   */\n    tag_134:\n        /* \"#utility.yul\":4752:5295   */\n      pop\n      pop\n      pop\n      jump\t// out\n        /* \"#utility.yul\":5301:5418   */\n    tag_74:\n        /* \"#utility.yul\":5355:5363   */\n      0x00\n        /* \"#utility.yul\":5405:5410   */\n      dup3\n        /* \"#utility.yul\":5399:5403   */\n      dup3\n        /* \"#utility.yul\":5395:5411   */\n      shr\n        /* \"#utility.yul\":5374:5411   */\n      swap1\n      pop\n        /* \"#utility.yul\":5301:5418   */\n      swap3\n      swap2\n      pop\n      pop\n      jump\t// out\n        /* \"#utility.yul\":5424:5593   */\n    tag_75:\n        /* \"#utility.yul\":5468:5474   */\n      0x00\n        /* \"#utility.yul\":5501:5552   */\n      tag_142\n        /* \"#utility.yul\":5549:5550   */\n      0x00\n        /* \"#utility.yul\":5545:5551   */\n      not\n        /* \"#utility.yul\":5537:5542   */\n      dup5\n        /* \"#utility.yul\":5534:5535   */\n      0x08\n        /* \"#utility.yul\":5530:5543   */\n      mul\n        /* \"#utility.yul\":5501:5552   */\n      tag_74\n      jump\t// in\n    tag_142:\n        /* \"#utility.yul\":5497:5553   */\n      not\n        /* \"#utility.yul\":5582:5586   */\n      dup1\n        /* \"#utility.yul\":5576:5580   */\n      dup4\n        /* \"#utility.yul\":5572:5587   */\n      and\n        /* \"#utility.yul\":5562:5587   */\n      swap2\n      pop\n        /* \"#utility.yul\":5475:5593   */\n      pop\n        /* \"#utility.yul\":5424:5593   */\n      swap3\n      swap2\n      pop\n      pop\n      jump\t// out\n        /* \"#utility.yul\":5598:5893   */\n    tag_76:\n        /* \"#utility.yul\":5674:5678   */\n      0x00\n        /* \"#utility.yul\":5820:5849   */\n      tag_144\n        /* \"#utility.yul\":5845:5848   */\n      dup4\n        /* \"#utility.yul\":5839:5843   */\n      dup4\n        /* \"#utility.yul\":5820:5849   */\n      tag_75\n      jump\t// in\n    tag_144:\n        /* \"#utility.yul\":5812:5849   */\n      swap2\n      pop\n        /* \"#utility.yul\":5882:5885   */\n      dup3\n        /* \"#utility.yul\":5879:5880   */\n      0x02\n        /* \"#utility.yul\":5875:5886   */\n      mul\n        /* \"#utility.yul\":5869:5873   */\n      dup3\n        /* \"#utility.yul\":5866:5887   */\n      or\n        /* \"#utility.yul\":5858:5887   */\n      swap1\n      pop\n        /* \"#utility.yul\":5598:5893   */\n      swap3\n      swap2\n      pop\n      pop\n      jump\t// out\n        /* \"#utility.yul\":5898:7293   */\n    tag_22:\n        /* \"#utility.yul\":6015:6052   */\n      tag_146\n        /* \"#utility.yul\":6048:6051   */\n      dup3\n        /* \"#utility.yul\":6015:6052   */\n      tag_55\n      jump\t// in\n    tag_146:\n        /* \"#utility.yul\":6117:6135   */\n      0xffffffffffffffff\n        /* \"#utility.yul\":6109:6115   */\n      dup2\n        /* \"#utility.yul\":6106:6136   */\n      gt\n        /* \"#utility.yul\":6103:6159   */\n      iszero\n      tag_147\n      jumpi\n        /* \"#utility.yul\":6139:6157   */\n      tag_148\n      tag_60\n      jump\t// in\n    tag_148:\n        /* \"#utility.yul\":6103:6159   */\n    tag_147:\n        /* \"#utility.yul\":6183:6221   */\n      tag_149\n        /* \"#utility.yul\":6215:6219   */\n      dup3\n        /* \"#utility.yul\":6209:6220   */\n      sload\n        /* \"#utility.yul\":6183:6221   */\n      tag_26\n      jump\t// in\n    tag_149:\n        /* \"#utility.yul\":6268:6335   */\n      tag_150\n        /* \"#utility.yul\":6328:6334   */\n      dup3\n        /* \"#utility.yul\":6320:6326   */\n      dup3\n        /* \"#utility.yul\":6314:6318   */\n      dup6\n        /* \"#utility.yul\":6268:6335   */\n      tag_73\n      jump\t// in\n    tag_150:\n        /* \"#utility.yul\":6362:6363   */\n      0x00\n        /* \"#utility.yul\":6386:6390   */\n      0x20\n        /* \"#utility.yul\":6373:6390   */\n      swap1\n      pop\n        /* \"#utility.yul\":6418:6420   */\n      0x1f\n        /* \"#utility.yul\":6410:6416   */\n      dup4\n        /* \"#utility.yul\":6407:6421   */\n      gt\n        /* \"#utility.yul\":6435:6436   */\n      0x01\n        /* \"#utility.yul\":6430:7048   */\n      dup2\n      eq\n      tag_152\n      jumpi\n        /* \"#utility.yul\":7092:7093   */\n      0x00\n        /* \"#utility.yul\":7109:7115   */\n      dup5\n        /* \"#utility.yul\":7106:7183   */\n      iszero\n      tag_153\n      jumpi\n        /* \"#utility.yul\":7158:7167   */\n      dup3\n        /* \"#utility.yul\":7153:7156   */\n      dup8\n        /* \"#utility.yul\":7149:7168   */\n      add\n        /* \"#utility.yul\":7143:7169   */\n      mload\n        /* \"#utility.yul\":7134:7169   */\n      swap1\n      pop\n        /* \"#utility.yul\":7106:7183   */\n    tag_153:\n        /* \"#utility.yul\":7209:7276   */\n      tag_154\n        /* \"#utility.yul\":7269:7275   */\n      dup6\n        /* \"#utility.yul\":7262:7267   */\n      dup3\n        /* \"#utility.yul\":7209:7276   */\n      tag_76\n      jump\t// in\n    tag_154:\n        /* \"#utility.yul\":7203:7207   */\n      dup7\n        /* \"#utility.yul\":7196:7277   */\n      sstore\n        /* \"#utility.yul\":7065:7287   */\n      pop\n        /* \"#utility.yul\":6400:7287   */\n      jump(tag_151)\n        /* \"#utility.yul\":6430:7048   */\n    tag_152:\n        /* \"#utility.yul\":6482:6486   */\n      0x1f\n        /* \"#utility.yul\":6478:6487   */\n      not\n        /* \"#utility.yul\":6470:6476   */\n      dup5\n        /* \"#utility.yul\":6466:6488   */\n      and\n        /* \"#utility.yul\":6516:6553   */\n      tag_155\n        /* \"#utility.yul\":6548:6552   */\n      dup7\n        /* \"#utility.yul\":6516:6553   */\n      tag_62\n      jump\t// in\n    tag_155:\n        /* \"#utility.yul\":6575:6576   */\n      0x00\n        /* \"#utility.yul\":6589:6797   */\n    tag_156:\n        /* \"#utility.yul\":6603:6610   */\n      dup3\n        /* \"#utility.yul\":6600:6601   */\n      dup2\n        /* \"#utility.yul\":6597:6611   */\n      lt\n        /* \"#utility.yul\":6589:6797   */\n      iszero\n      tag_158\n      jumpi\n        /* \"#utility.yul\":6682:6691   */\n      dup5\n        /* \"#utility.yul\":6677:6680   */\n      dup10\n        /* \"#utility.yul\":6673:6692   */\n      add\n        /* \"#utility.yul\":6667:6693   */\n      mload\n        /* \"#utility.yul\":6659:6665   */\n      dup3\n        /* \"#utility.yul\":6652:6694   */\n      sstore\n        /* \"#utility.yul\":6733:6734   */\n      0x01\n        /* \"#utility.yul\":6725:6731   */\n      dup3\n        /* \"#utility.yul\":6721:6735   */\n      add\n        /* \"#utility.yul\":6711:6735   */\n      swap2\n      pop\n        /* \"#utility.yul\":6780:6782   */\n      0x20\n        /* \"#utility.yul\":6769:6778   */\n      dup6\n        /* \"#utility.yul\":6765:6783   */\n      add\n        /* \"#utility.yul\":6752:6783   */\n      swap5\n      pop\n        /* \"#utility.yul\":6626:6630   */\n      0x20\n        /* \"#utility.yul\":6623:6624   */\n      dup2\n        /* \"#utility.yul\":6619:6631   */\n      add\n        /* \"#utility.yul\":6614:6631   */\n      swap1\n      pop\n        /* \"#utility.yul\":6589:6797   */\n      jump(tag_156)\n    tag_158:\n        /* \"#utility.yul\":6825:6831   */\n      dup7\n        /* \"#utility.yul\":6816:6823   */\n      dup4\n        /* \"#utility.yul\":6813:6832   */\n      lt\n        /* \"#utility.yul\":6810:6989   */\n      iszero\n      tag_159\n      jumpi\n        /* \"#utility.yul\":6883:6892   */\n      dup5\n        /* \"#utility.yul\":6878:6881   */\n      dup10\n        /* \"#utility.yul\":6874:6893   */\n      add\n        /* \"#utility.yul\":6868:6894   */\n      mload\n        /* \"#utility.yul\":6926:6974   */\n      tag_160\n        /* \"#utility.yul\":6968:6972   */\n      0x1f\n        /* \"#utility.yul\":6960:6966   */\n      dup10\n        /* \"#utility.yul\":6956:6973   */\n      and\n        /* \"#utility.yul\":6945:6954   */\n      dup3\n        /* \"#utility.yul\":6926:6974   */\n      tag_75\n      jump\t// in\n    tag_160:\n        /* \"#utility.yul\":6918:6924   */\n      dup4\n        /* \"#utility.yul\":6911:6975   */\n      sstore\n        /* \"#utility.yul\":6833:6989   */\n      pop\n        /* \"#utility.yul\":6810:6989   */\n    tag_159:\n        /* \"#utility.yul\":7035:7036   */\n      0x01\n        /* \"#utility.yul\":7031:7032   */\n      0x02\n        /* \"#utility.yul\":7023:7029   */\n      dup9\n        /* \"#utility.yul\":7019:7033   */\n      mul\n        /* \"#utility.yul\":7015:7037   */\n      add\n        /* \"#utility.yul\":7009:7013   */\n      dup9\n        /* \"#utility.yul\":7002:7038   */\n      sstore\n        /* \"#utility.yul\":6437:7048   */\n      pop\n      pop\n      pop\n        /* \"#utility.yul\":6400:7287   */\n    tag_151:\n      pop\n        /* \"#utility.yul\":5990:7293   */\n      pop\n      pop\n      pop\n        /* \"#utility.yul\":5898:7293   */\n      pop\n      pop\n      jump\t// out\n\n    auxdata: 0xa2646970667358221220c6def99b1557c1f34e8d1bd7bac902ae82648ea32c43659cfef5ba83d337e7eb64736f6c634300081a0033\n}\n",
				"bytecode": {
					"linkReferences": {},
					"object": "608060405260055f553480156012575f80fd5b5061080e806100205f395ff3fe608060405234801561000f575f80fd5b506004361061003f575f3560e01c80632dbceaff14610043578063492bfa18146100735780639507d39a14610091575b5f80fd5b61005d60048036038101906100589190610427565b6100c1565b60405161006a91906104c2565b60405180910390f35b61007b6101e7565b60405161008891906104c2565b60405180910390f35b6100ab60048036038101906100a69190610427565b610273565b6040516100b891906104c2565b60405180910390f35b606060058214610114576040518060400160405280600881526020017f4e6f2062756464790000000000000000000000000000000000000000000000008152506001908161010f9190610709565b610159565b6040518060400160405280600681526020017f6461756c61740000000000000000000000000000000000000000000000000000815250600190816101589190610709565b5b80546101649061053c565b80601f01602080910402602001604051908101604052809291908181526020018280546101909061053c565b80156101db5780601f106101b2576101008083540402835291602001916101db565b820191905f5260205f20905b8154815290600101906020018083116101be57829003601f168201915b50505050509050919050565b600180546101f49061053c565b80601f01602080910402602001604051908101604052809291908181526020018280546102209061053c565b801561026b5780601f106102425761010080835404028352916020019161026b565b820191905f5260205f20905b81548152906001019060200180831161024e57829003601f168201915b505050505081565b6060600582036102c7576040518060400160405280601281526020017f486579207468652076616c756520697320350000000000000000000000000000815250600190816102c19190610709565b50610360565b60048203610319576040518060400160405280600581526020017f4e6f742035000000000000000000000000000000000000000000000000000000815250600190816103139190610709565b5061035f565b6040518060400160405280600981526020017f4865206461756c617400000000000000000000000000000000000000000000008152506001908161035d9190610709565b505b5b6001805461036d9061053c565b80601f01602080910402602001604051908101604052809291908181526020018280546103999061053c565b80156103e45780601f106103bb576101008083540402835291602001916103e4565b820191905f5260205f20905b8154815290600101906020018083116103c757829003601f168201915b50505050509050919050565b5f80fd5b5f819050919050565b610406816103f4565b8114610410575f80fd5b50565b5f81359050610421816103fd565b92915050565b5f6020828403121561043c5761043b6103f0565b5b5f61044984828501610413565b91505092915050565b5f81519050919050565b5f82825260208201905092915050565b8281835e5f83830152505050565b5f601f19601f8301169050919050565b5f61049482610452565b61049e818561045c565b93506104ae81856020860161046c565b6104b78161047a565b840191505092915050565b5f6020820190508181035f8301526104da818461048a565b905092915050565b7f4e487b71000000000000000000000000000000000000000000000000000000005f52604160045260245ffd5b7f4e487b71000000000000000000000000000000000000000000000000000000005f52602260045260245ffd5b5f600282049050600182168061055357607f821691505b6020821081036105665761056561050f565b5b50919050565b5f819050815f5260205f209050919050565b5f6020601f8301049050919050565b5f82821b905092915050565b5f600883026105c87fffffffffffffffffffffffffffffffffffffffffffffffffffffffffffffffff8261058d565b6105d2868361058d565b95508019841693508086168417925050509392505050565b5f819050919050565b5f61060d610608610603846103f4565b6105ea565b6103f4565b9050919050565b5f819050919050565b610626836105f3565b61063a61063282610614565b848454610599565b825550505050565b5f90565b61064e610642565b61065981848461061d565b505050565b5b8181101561067c576106715f82610646565b60018101905061065f565b5050565b601f8211156106c1576106928161056c565b61069b8461057e565b810160208510156106aa578190505b6106be6106b68561057e565b83018261065e565b50505b505050565b5f82821c905092915050565b5f6106e15f19846008026106c6565b1980831691505092915050565b5f6106f983836106d2565b9150826002028217905092915050565b61071282610452565b67ffffffffffffffff81111561072b5761072a6104e2565b5b610735825461053c565b610740828285610680565b5f60209050601f831160018114610771575f841561075f578287015190505b61076985826106ee565b8655506107d0565b601f19841661077f8661056c565b5f5b828110156107a657848901518255600182019150602085019450602081019050610781565b868310156107c357848901516107bf601f8916826106d2565b8355505b6001600288020188555050505b50505050505056fea2646970667358221220c6def99b1557c1f34e8d1bd7bac902ae82648ea32c43659cfef5ba83d337e7eb64736f6c634300081a0033",
					"opcodes": "PUSH1 0x80 PUSH1 0x40 MSTORE PUSH1 0x5 PUSH0 SSTORE CALLVALUE DUP1 ISZERO PUSH1 0x12 JUMPI PUSH0 DUP1 REVERT JUMPDEST POP PUSH2 0x80E DUP1 PUSH2 0x20 PUSH0 CODECOPY PUSH0 RETURN INVALID PUSH1 0x80 PUSH1 0x40 MSTORE CALLVALUE DUP1 ISZERO PUSH2 0xF JUMPI PUSH0 DUP1 REVERT JUMPDEST POP PUSH1 0x4 CALLDATASIZE LT PUSH2 0x3F JUMPI PUSH0 CALLDATALOAD PUSH1 0xE0 SHR DUP1 PUSH4 0x2DBCEAFF EQ PUSH2 0x43 JUMPI DUP1 PUSH4 0x492BFA18 EQ PUSH2 0x73 JUMPI DUP1 PUSH4 0x9507D39A EQ PUSH2 0x91 JUMPI JUMPDEST PUSH0 DUP1 REVERT JUMPDEST PUSH2 0x5D PUSH1 0x4 DUP1 CALLDATASIZE SUB DUP2 ADD SWAP1 PUSH2 0x58 SWAP2 SWAP1 PUSH2 0x427 JUMP JUMPDEST PUSH2 0xC1 JUMP JUMPDEST PUSH1 0x40 MLOAD PUSH2 0x6A SWAP2 SWAP1 PUSH2 0x4C2 JUMP JUMPDEST PUSH1 0x40 MLOAD DUP1 SWAP2 SUB SWAP1 RETURN JUMPDEST PUSH2 0x7B PUSH2 0x1E7 JUMP JUMPDEST PUSH1 0x40 MLOAD PUSH2 0x88 SWAP2 SWAP1 PUSH2 0x4C2 JUMP JUMPDEST PUSH1 0x40 MLOAD DUP1 SWAP2 SUB SWAP1 RETURN JUMPDEST PUSH2 0xAB PUSH1 0x4 DUP1 CALLDATASIZE SUB DUP2 ADD SWAP1 PUSH2 0xA6 SWAP2 SWAP1 PUSH2 0x427 JUMP JUMPDEST PUSH2 0x273 JUMP JUMPDEST PUSH1 0x40 MLOAD PUSH2 0xB8 SWAP2 SWAP1 PUSH2 0x4C2 JUMP JUMPDEST PUSH1 0x40 MLOAD DUP1 SWAP2 SUB SWAP1 RETURN JUMPDEST PUSH1 0x60 PUSH1 0x5 DUP3 EQ PUSH2 0x114 JUMPI PUSH1 0x40 MLOAD DUP1 PUSH1 0x40 ADD PUSH1 0x40 MSTORE DUP1 PUSH1 0x8 DUP2 MSTORE PUSH1 0x20 ADD PUSH32 0x4E6F206275646479000000000000000000000000000000000000000000000000 DUP2 MSTORE POP PUSH1 0x1 SWAP1 DUP2 PUSH2 0x10F SWAP2 SWAP1 PUSH2 0x709 JUMP JUMPDEST PUSH2 0x159 JUMP JUMPDEST PUSH1 0x40 MLOAD DUP1 PUSH1 0x40 ADD PUSH1 0x40 MSTORE DUP1 PUSH1 0x6 DUP2 MSTORE PUSH1 0x20 ADD PUSH32 0x6461756C61740000000000000000000000000000000000000000000000000000 DUP2 MSTORE POP PUSH1 0x1 SWAP1 DUP2 PUSH2 0x158 SWAP2 SWAP1 PUSH2 0x709 JUMP JUMPDEST JUMPDEST DUP1 SLOAD PUSH2 0x164 SWAP1 PUSH2 0x53C JUMP JUMPDEST DUP1 PUSH1 0x1F ADD PUSH1 0x20 DUP1 SWAP2 DIV MUL PUSH1 0x20 ADD PUSH1 0x40 MLOAD SWAP1 DUP2 ADD PUSH1 0x40 MSTORE DUP1 SWAP3 SWAP2 SWAP1 DUP2 DUP2 MSTORE PUSH1 0x20 ADD DUP3 DUP1 SLOAD PUSH2 0x190 SWAP1 PUSH2 0x53C JUMP JUMPDEST DUP1 ISZERO PUSH2 0x1DB JUMPI DUP1 PUSH1 0x1F LT PUSH2 0x1B2 JUMPI PUSH2 0x100 DUP1 DUP4 SLOAD DIV MUL DUP4 MSTORE SWAP2 PUSH1 0x20 ADD SWAP2 PUSH2 0x1DB JUMP JUMPDEST DUP3 ADD SWAP2 SWAP1 PUSH0 MSTORE PUSH1 0x20 PUSH0 KECCAK256 SWAP1 JUMPDEST DUP2 SLOAD DUP2 MSTORE SWAP1 PUSH1 0x1 ADD SWAP1 PUSH1 0x20 ADD DUP1 DUP4 GT PUSH2 0x1BE JUMPI DUP3 SWAP1 SUB PUSH1 0x1F AND DUP3 ADD SWAP2 JUMPDEST POP POP POP POP POP SWAP1 POP SWAP2 SWAP1 POP JUMP JUMPDEST PUSH1 0x1 DUP1 SLOAD PUSH2 0x1F4 SWAP1 PUSH2 0x53C JUMP JUMPDEST DUP1 PUSH1 0x1F ADD PUSH1 0x20 DUP1 SWAP2 DIV MUL PUSH1 0x20 ADD PUSH1 0x40 MLOAD SWAP1 DUP2 ADD PUSH1 0x40 MSTORE DUP1 SWAP3 SWAP2 SWAP1 DUP2 DUP2 MSTORE PUSH1 0x20 ADD DUP3 DUP1 SLOAD PUSH2 0x220 SWAP1 PUSH2 0x53C JUMP JUMPDEST DUP1 ISZERO PUSH2 0x26B JUMPI DUP1 PUSH1 0x1F LT PUSH2 0x242 JUMPI PUSH2 0x100 DUP1 DUP4 SLOAD DIV MUL DUP4 MSTORE SWAP2 PUSH1 0x20 ADD SWAP2 PUSH2 0x26B JUMP JUMPDEST DUP3 ADD SWAP2 SWAP1 PUSH0 MSTORE PUSH1 0x20 PUSH0 KECCAK256 SWAP1 JUMPDEST DUP2 SLOAD DUP2 MSTORE SWAP1 PUSH1 0x1 ADD SWAP1 PUSH1 0x20 ADD DUP1 DUP4 GT PUSH2 0x24E JUMPI DUP3 SWAP1 SUB PUSH1 0x1F AND DUP3 ADD SWAP2 JUMPDEST POP POP POP POP POP DUP2 JUMP JUMPDEST PUSH1 0x60 PUSH1 0x5 DUP3 SUB PUSH2 0x2C7 JUMPI PUSH1 0x40 MLOAD DUP1 PUSH1 0x40 ADD PUSH1 0x40 MSTORE DUP1 PUSH1 0x12 DUP2 MSTORE PUSH1 0x20 ADD PUSH32 0x486579207468652076616C756520697320350000000000000000000000000000 DUP2 MSTORE POP PUSH1 0x1 SWAP1 DUP2 PUSH2 0x2C1 SWAP2 SWAP1 PUSH2 0x709 JUMP JUMPDEST POP PUSH2 0x360 JUMP JUMPDEST PUSH1 0x4 DUP3 SUB PUSH2 0x319 JUMPI PUSH1 0x40 MLOAD DUP1 PUSH1 0x40 ADD PUSH1 0x40 MSTORE DUP1 PUSH1 0x5 DUP2 MSTORE PUSH1 0x20 ADD PUSH32 0x4E6F742035000000000000000000000000000000000000000000000000000000 DUP2 MSTORE POP PUSH1 0x1 SWAP1 DUP2 PUSH2 0x313 SWAP2 SWAP1 PUSH2 0x709 JUMP JUMPDEST POP PUSH2 0x35F JUMP JUMPDEST PUSH1 0x40 MLOAD DUP1 PUSH1 0x40 ADD PUSH1 0x40 MSTORE DUP1 PUSH1 0x9 DUP2 MSTORE PUSH1 0x20 ADD PUSH32 0x4865206461756C61740000000000000000000000000000000000000000000000 DUP2 MSTORE POP PUSH1 0x1 SWAP1 DUP2 PUSH2 0x35D SWAP2 SWAP1 PUSH2 0x709 JUMP JUMPDEST POP JUMPDEST JUMPDEST PUSH1 0x1 DUP1 SLOAD PUSH2 0x36D SWAP1 PUSH2 0x53C JUMP JUMPDEST DUP1 PUSH1 0x1F ADD PUSH1 0x20 DUP1 SWAP2 DIV MUL PUSH1 0x20 ADD PUSH1 0x40 MLOAD SWAP1 DUP2 ADD PUSH1 0x40 MSTORE DUP1 SWAP3 SWAP2 SWAP1 DUP2 DUP2 MSTORE PUSH1 0x20 ADD DUP3 DUP1 SLOAD PUSH2 0x399 SWAP1 PUSH2 0x53C JUMP JUMPDEST DUP1 ISZERO PUSH2 0x3E4 JUMPI DUP1 PUSH1 0x1F LT PUSH2 0x3BB JUMPI PUSH2 0x100 DUP1 DUP4 SLOAD DIV MUL DUP4 MSTORE SWAP2 PUSH1 0x20 ADD SWAP2 PUSH2 0x3E4 JUMP JUMPDEST DUP3 ADD SWAP2 SWAP1 PUSH0 MSTORE PUSH1 0x20 PUSH0 KECCAK256 SWAP1 JUMPDEST DUP2 SLOAD DUP2 MSTORE SWAP1 PUSH1 0x1 ADD SWAP1 PUSH1 0x20 ADD DUP1 DUP4 GT PUSH2 0x3C7 JUMPI DUP3 SWAP1 SUB PUSH1 0x1F AND DUP3 ADD SWAP2 JUMPDEST POP POP POP POP POP SWAP1 POP SWAP2 SWAP1 POP JUMP JUMPDEST PUSH0 DUP1 REVERT JUMPDEST PUSH0 DUP2 SWAP1 POP SWAP2 SWAP1 POP JUMP JUMPDEST PUSH2 0x406 DUP2 PUSH2 0x3F4 JUMP JUMPDEST DUP2 EQ PUSH2 0x410 JUMPI PUSH0 DUP1 REVERT JUMPDEST POP JUMP JUMPDEST PUSH0 DUP2 CALLDATALOAD SWAP1 POP PUSH2 0x421 DUP2 PUSH2 0x3FD JUMP JUMPDEST SWAP3 SWAP2 POP POP JUMP JUMPDEST PUSH0 PUSH1 0x20 DUP3 DUP5 SUB SLT ISZERO PUSH2 0x43C JUMPI PUSH2 0x43B PUSH2 0x3F0 JUMP JUMPDEST JUMPDEST PUSH0 PUSH2 0x449 DUP5 DUP3 DUP6 ADD PUSH2 0x413 JUMP JUMPDEST SWAP2 POP POP SWAP3 SWAP2 POP POP JUMP JUMPDEST PUSH0 DUP2 MLOAD SWAP1 POP SWAP2 SWAP1 POP JUMP JUMPDEST PUSH0 DUP3 DUP3 MSTORE PUSH1 0x20 DUP3 ADD SWAP1 POP SWAP3 SWAP2 POP POP JUMP JUMPDEST DUP3 DUP2 DUP4 MCOPY PUSH0 DUP4 DUP4 ADD MSTORE POP POP POP JUMP JUMPDEST PUSH0 PUSH1 0x1F NOT PUSH1 0x1F DUP4 ADD AND SWAP1 POP SWAP2 SWAP1 POP JUMP JUMPDEST PUSH0 PUSH2 0x494 DUP3 PUSH2 0x452 JUMP JUMPDEST PUSH2 0x49E DUP2 DUP6 PUSH2 0x45C JUMP JUMPDEST SWAP4 POP PUSH2 0x4AE DUP2 DUP6 PUSH1 0x20 DUP7 ADD PUSH2 0x46C JUMP JUMPDEST PUSH2 0x4B7 DUP2 PUSH2 0x47A JUMP JUMPDEST DUP5 ADD SWAP2 POP POP SWAP3 SWAP2 POP POP JUMP JUMPDEST PUSH0 PUSH1 0x20 DUP3 ADD SWAP1 POP DUP2 DUP2 SUB PUSH0 DUP4 ADD MSTORE PUSH2 0x4DA DUP2 DUP5 PUSH2 0x48A JUMP JUMPDEST SWAP1 POP SWAP3 SWAP2 POP POP JUMP JUMPDEST PUSH32 0x4E487B7100000000000000000000000000000000000000000000000000000000 PUSH0 MSTORE PUSH1 0x41 PUSH1 0x4 MSTORE PUSH1 0x24 PUSH0 REVERT JUMPDEST PUSH32 0x4E487B7100000000000000000000000000000000000000000000000000000000 PUSH0 MSTORE PUSH1 0x22 PUSH1 0x4 MSTORE PUSH1 0x24 PUSH0 REVERT JUMPDEST PUSH0 PUSH1 0x2 DUP3 DIV SWAP1 POP PUSH1 0x1 DUP3 AND DUP1 PUSH2 0x553 JUMPI PUSH1 0x7F DUP3 AND SWAP2 POP JUMPDEST PUSH1 0x20 DUP3 LT DUP2 SUB PUSH2 0x566 JUMPI PUSH2 0x565 PUSH2 0x50F JUMP JUMPDEST JUMPDEST POP SWAP2 SWAP1 POP JUMP JUMPDEST PUSH0 DUP2 SWAP1 POP DUP2 PUSH0 MSTORE PUSH1 0x20 PUSH0 KECCAK256 SWAP1 POP SWAP2 SWAP1 POP JUMP JUMPDEST PUSH0 PUSH1 0x20 PUSH1 0x1F DUP4 ADD DIV SWAP1 POP SWAP2 SWAP1 POP JUMP JUMPDEST PUSH0 DUP3 DUP3 SHL SWAP1 POP SWAP3 SWAP2 POP POP JUMP JUMPDEST PUSH0 PUSH1 0x8 DUP4 MUL PUSH2 0x5C8 PUSH32 0xFFFFFFFFFFFFFFFFFFFFFFFFFFFFFFFFFFFFFFFFFFFFFFFFFFFFFFFFFFFFFFFF DUP3 PUSH2 0x58D JUMP JUMPDEST PUSH2 0x5D2 DUP7 DUP4 PUSH2 0x58D JUMP JUMPDEST SWAP6 POP DUP1 NOT DUP5 AND SWAP4 POP DUP1 DUP7 AND DUP5 OR SWAP3 POP POP POP SWAP4 SWAP3 POP POP POP JUMP JUMPDEST PUSH0 DUP2 SWAP1 POP SWAP2 SWAP1 POP JUMP JUMPDEST PUSH0 PUSH2 0x60D PUSH2 0x608 PUSH2 0x603 DUP5 PUSH2 0x3F4 JUMP JUMPDEST PUSH2 0x5EA JUMP JUMPDEST PUSH2 0x3F4 JUMP JUMPDEST SWAP1 POP SWAP2 SWAP1 POP JUMP JUMPDEST PUSH0 DUP2 SWAP1 POP SWAP2 SWAP1 POP JUMP JUMPDEST PUSH2 0x626 DUP4 PUSH2 0x5F3 JUMP JUMPDEST PUSH2 0x63A PUSH2 0x632 DUP3 PUSH2 0x614 JUMP JUMPDEST DUP5 DUP5 SLOAD PUSH2 0x599 JUMP JUMPDEST DUP3 SSTORE POP POP POP POP JUMP JUMPDEST PUSH0 SWAP1 JUMP JUMPDEST PUSH2 0x64E PUSH2 0x642 JUMP JUMPDEST PUSH2 0x659 DUP2 DUP5 DUP5 PUSH2 0x61D JUMP JUMPDEST POP POP POP JUMP JUMPDEST JUMPDEST DUP2 DUP2 LT ISZERO PUSH2 0x67C JUMPI PUSH2 0x671 PUSH0 DUP3 PUSH2 0x646 JUMP JUMPDEST PUSH1 0x1 DUP2 ADD SWAP1 POP PUSH2 0x65F JUMP JUMPDEST POP POP JUMP JUMPDEST PUSH1 0x1F DUP3 GT ISZERO PUSH2 0x6C1 JUMPI PUSH2 0x692 DUP2 PUSH2 0x56C JUMP JUMPDEST PUSH2 0x69B DUP5 PUSH2 0x57E JUMP JUMPDEST DUP2 ADD PUSH1 0x20 DUP6 LT ISZERO PUSH2 0x6AA JUMPI DUP2 SWAP1 POP JUMPDEST PUSH2 0x6BE PUSH2 0x6B6 DUP6 PUSH2 0x57E JUMP JUMPDEST DUP4 ADD DUP3 PUSH2 0x65E JUMP JUMPDEST POP POP JUMPDEST POP POP POP JUMP JUMPDEST PUSH0 DUP3 DUP3 SHR SWAP1 POP SWAP3 SWAP2 POP POP JUMP JUMPDEST PUSH0 PUSH2 0x6E1 PUSH0 NOT DUP5 PUSH1 0x8 MUL PUSH2 0x6C6 JUMP JUMPDEST NOT DUP1 DUP4 AND SWAP2 POP POP SWAP3 SWAP2 POP POP JUMP JUMPDEST PUSH0 PUSH2 0x6F9 DUP4 DUP4 PUSH2 0x6D2 JUMP JUMPDEST SWAP2 POP DUP3 PUSH1 0x2 MUL DUP3 OR SWAP1 POP SWAP3 SWAP2 POP POP JUMP JUMPDEST PUSH2 0x712 DUP3 PUSH2 0x452 JUMP JUMPDEST PUSH8 0xFFFFFFFFFFFFFFFF DUP2 GT ISZERO PUSH2 0x72B JUMPI PUSH2 0x72A PUSH2 0x4E2 JUMP JUMPDEST JUMPDEST PUSH2 0x735 DUP3 SLOAD PUSH2 0x53C JUMP JUMPDEST PUSH2 0x740 DUP3 DUP3 DUP6 PUSH2 0x680 JUMP JUMPDEST PUSH0 PUSH1 0x20 SWAP1 POP PUSH1 0x1F DUP4 GT PUSH1 0x1 DUP2 EQ PUSH2 0x771 JUMPI PUSH0 DUP5 ISZERO PUSH2 0x75F JUMPI DUP3 DUP8 ADD MLOAD SWAP1 POP JUMPDEST PUSH2 0x769 DUP6 DUP3 PUSH2 0x6EE JUMP JUMPDEST DUP7 SSTORE POP PUSH2 0x7D0 JUMP JUMPDEST PUSH1 0x1F NOT DUP5 AND PUSH2 0x77F DUP7 PUSH2 0x56C JUMP JUMPDEST PUSH0 JUMPDEST DUP3 DUP2 LT ISZERO PUSH2 0x7A6 JUMPI DUP5 DUP10 ADD MLOAD DUP3 SSTORE PUSH1 0x1 DUP3 ADD SWAP2 POP PUSH1 0x20 DUP6 ADD SWAP5 POP PUSH1 0x20 DUP2 ADD SWAP1 POP PUSH2 0x781 JUMP JUMPDEST DUP7 DUP4 LT ISZERO PUSH2 0x7C3 JUMPI DUP5 DUP10 ADD MLOAD PUSH2 0x7BF PUSH1 0x1F DUP10 AND DUP3 PUSH2 0x6D2 JUMP JUMPDEST DUP4 SSTORE POP JUMPDEST PUSH1 0x1 PUSH1 0x2 DUP9 MUL ADD DUP9 SSTORE POP POP POP JUMPDEST POP POP POP POP POP POP JUMP INVALID LOG2 PUSH5 0x6970667358 0x22 SLT KECCAK256 0xC6 0xDE 0xF9 SWAP12 ISZERO JUMPI 0xC1 RETURN 0x4E DUP14 SHL 0xD7 0xBA 0xC9 MUL 0xAE DUP3 PUSH5 0x8EA32C4365 SWAP13 INVALID CREATE2 0xBA DUP4 0xD3 CALLDATACOPY 0xE7 0xEB PUSH5 0x736F6C6343 STOP ADDMOD BYTE STOP CALLER "
				},
				"gasEstimates": {
					"creation": {
						"codeDepositCost": "412400",
						"executionCost": "22552",
						"totalCost": "434952"
					},
					"external": {
						"get(uint256)": "infinite",
						"myString()": "infinite",
						"shortHand(uint256)": "infinite"
					}
				},
				"methodIdentifiers": {
					"get(uint256)": "9507d39a",
					"myString()": "492bfa18",
					"shortHand(uint256)": "2dbceaff"
				}
			},
			"storageLayout": {
				"storage": [
					{
						"astId": 4,
						"contract": "IfElse.sol:IfElse",
						"label": "myNum",
						"offset": 0,
						"slot": "0",
						"type": "t_uint256"
					},
					{
						"astId": 6,
						"contract": "IfElse.sol:IfElse",
						"label": "myString",
						"offset": 0,
						"slot": "1",
						"type": "t_string_storage"
					}
				],
				"types": {
					"t_string_storage": {
						"encoding": "bytes",
						"label": "string",
						"numberOfBytes": "32"
					},
					"t_uint256": {
						"encoding": "inplace",
						"label": "uint256",
						"numberOfBytes": "32"
					}
				}
			},
			"userdoc": {
				"kind": "user",
				"methods": {},
				"version": 1
			}
		}
	}
}