{
	"data": {
		"bytecode": {
			"linkReferences": {},
			"object": "608060405260025f5560076001553480156017575f80fd5b5061023b806100255f395ff3fe608060405234801561000f575f80fd5b506004361061003f575f3560e01c8063254d6005146100435780634717f97c146100615780637e09697d14610080575b5f80fd5b61004b61009e565b6040516100589190610124565b60405180910390f35b6100696100a4565b60405161007792919061013d565b60405180910390f35b610088610107565b6040516100959190610124565b60405180910390f35b60015481565b5f8060055f808282546100b79190610191565b92505081905550600760015f8282546100d09190610191565b925050819055505f6001545f546100e791906101c4565b90505f6001545f546100f991906101c4565b905081819350935050509091565b5f5481565b5f819050919050565b61011e8161010c565b82525050565b5f6020820190506101375f830184610115565b92915050565b5f6040820190506101505f830185610115565b61015d6020830184610115565b9392505050565b7f4e487b71000000000000000000000000000000000000000000000000000000005f52601160045260245ffd5b5f61019b8261010c565b91506101a68361010c565b92508282019050808211156101be576101bd610164565b5b92915050565b5f6101ce8261010c565b91506101d98361010c565b92508282026101e78161010c565b915082820484148315176101fe576101fd610164565b5b509291505056fea2646970667358221220977e03cdde55df740c580d951ce3a4e50c22299b70c10ea8d94beb24fc91b87564736f6c634300081a0033",
			"opcodes": "PUSH1 0x80 PUSH1 0x40 MSTORE PUSH1 0x2 PUSH0 SSTORE PUSH1 0x7 PUSH1 0x1 SSTORE CALLVALUE DUP1 ISZERO PUSH1 0x17 JUMPI PUSH0 DUP1 REVERT JUMPDEST POP PUSH2 0x23B DUP1 PUSH2 0x25 PUSH0 CODECOPY PUSH0 RETURN INVALID PUSH1 0x80 PUSH1 0x40 MSTORE CALLVALUE DUP1 ISZERO PUSH2 0xF JUMPI PUSH0 DUP1 REVERT JUMPDEST POP PUSH1 0x4 CALLDATASIZE LT PUSH2 0x3F JUMPI PUSH0 CALLDATALOAD PUSH1 0xE0 SHR DUP1 PUSH4 0x254D6005 EQ PUSH2 0x43 JUMPI DUP1 PUSH4 0x4717F97C EQ PUSH2 0x61 JUMPI DUP1 PUSH4 0x7E09697D EQ PUSH2 0x80 JUMPI JUMPDEST PUSH0 DUP1 REVERT JUMPDEST PUSH2 0x4B PUSH2 0x9E JUMP JUMPDEST PUSH1 0x40 MLOAD PUSH2 0x58 SWAP2 SWAP1 PUSH2 0x124 JUMP JUMPDEST PUSH1 0x40 MLOAD DUP1 SWAP2 SUB SWAP1 RETURN JUMPDEST PUSH2 0x69 PUSH2 0xA4 JUMP JUMPDEST PUSH1 0x40 MLOAD PUSH2 0x77 SWAP3 SWAP2 SWAP1 PUSH2 0x13D JUMP JUMPDEST PUSH1 0x40 MLOAD DUP1 SWAP2 SUB SWAP1 RETURN JUMPDEST PUSH2 0x88 PUSH2 0x107 JUMP JUMPDEST PUSH1 0x40 MLOAD PUSH2 0x95 SWAP2 SWAP1 PUSH2 0x124 JUMP JUMPDEST PUSH1 0x40 MLOAD DUP1 SWAP2 SUB SWAP1 RETURN JUMPDEST PUSH1 0x1 SLOAD DUP2 JUMP JUMPDEST PUSH0 DUP1 PUSH1 0x5 PUSH0 DUP1 DUP3 DUP3 SLOAD PUSH2 0xB7 SWAP2 SWAP1 PUSH2 0x191 JUMP JUMPDEST SWAP3 POP POP DUP2 SWAP1 SSTORE POP PUSH1 0x7 PUSH1 0x1 PUSH0 DUP3 DUP3 SLOAD PUSH2 0xD0 SWAP2 SWAP1 PUSH2 0x191 JUMP JUMPDEST SWAP3 POP POP DUP2 SWAP1 SSTORE POP PUSH0 PUSH1 0x1 SLOAD PUSH0 SLOAD PUSH2 0xE7 SWAP2 SWAP1 PUSH2 0x1C4 JUMP JUMPDEST SWAP1 POP PUSH0 PUSH1 0x1 SLOAD PUSH0 SLOAD PUSH2 0xF9 SWAP2 SWAP1 PUSH2 0x1C4 JUMP JUMPDEST SWAP1 POP DUP2 DUP2 SWAP4 POP SWAP4 POP POP POP SWAP1 SWAP2 JUMP JUMPDEST PUSH0 SLOAD DUP2 JUMP JUMPDEST PUSH0 DUP2 SWAP1 POP SWAP2 SWAP1 POP JUMP JUMPDEST PUSH2 0x11E DUP2 PUSH2 0x10C JUMP JUMPDEST DUP3 MSTORE POP POP JUMP JUMPDEST PUSH0 PUSH1 0x20 DUP3 ADD SWAP1 POP PUSH2 0x137 PUSH0 DUP4 ADD DUP5 PUSH2 0x115 JUMP JUMPDEST SWAP3 SWAP2 POP POP JUMP JUMPDEST PUSH0 PUSH1 0x40 DUP3 ADD SWAP1 POP PUSH2 0x150 PUSH0 DUP4 ADD DUP6 PUSH2 0x115 JUMP JUMPDEST PUSH2 0x15D PUSH1 0x20 DUP4 ADD DUP5 PUSH2 0x115 JUMP JUMPDEST SWAP4 SWAP3 POP POP POP JUMP JUMPDEST PUSH32 0x4E487B7100000000000000000000000000000000000000000000000000000000 PUSH0 MSTORE PUSH1 0x11 PUSH1 0x4 MSTORE PUSH1 0x24 PUSH0 REVERT JUMPDEST PUSH0 PUSH2 0x19B DUP3 PUSH2 0x10C JUMP JUMPDEST SWAP2 POP PUSH2 0x1A6 DUP4 PUSH2 0x10C JUMP JUMPDEST SWAP3 POP DUP3 DUP3 ADD SWAP1 POP DUP1 DUP3 GT ISZERO PUSH2 0x1BE JUMPI PUSH2 0x1BD PUSH2 0x164 JUMP JUMPDEST JUMPDEST SWAP3 SWAP2 POP POP JUMP JUMPDEST PUSH0 PUSH2 0x1CE DUP3 PUSH2 0x10C JUMP JUMPDEST SWAP2 POP PUSH2 0x1D9 DUP4 PUSH2 0x10C JUMP JUMPDEST SWAP3 POP DUP3 DUP3 MUL PUSH2 0x1E7 DUP2 PUSH2 0x10C JUMP JUMPDEST SWAP2 POP DUP3 DUP3 DIV DUP5 EQ DUP4 ISZERO OR PUSH2 0x1FE JUMPI PUSH2 0x1FD PUSH2 0x164 JUMP JUMPDEST JUMPDEST POP SWAP3 SWAP2 POP POP JUMP INVALID LOG2 PUSH5 0x6970667358 0x22 SLT KECCAK256 SWAP8 PUSH31 0x3CDDE55DF740C580D951CE3A4E50C22299B70C10EA8D94BEB24FC91B87564 PUSH20 0x6F6C634300081A00330000000000000000000000 "
		},
		"gasEstimates": {
			"creation": {
				"codeDepositCost": "114200",
				"executionCost": "44368",
				"totalCost": "158568"
			},
			"external": {
				"Num1()": "2446",
				"Num2()": "2403",
				"getResults()": "infinite"
			}
		},
		"methodIdentifiers": {
			"Num1()": "7e09697d",
			"Num2()": "254d6005",
			"getResults()": "4717f97c"
		}
	},
	"abi": [
		{
			"inputs": [],
			"name": "Num1",
			"outputs": [
				{
					"internalType": "uint256",
					"name": "",
					"type": "uint256"
				}
			],
			"stateMutability": "view",
			"type": "function"
		},
		{
			"inputs": [],
			"name": "Num2",
			"outputs": [
				{
					"internalType": "uint256",
					"name": "",
					"type": "uint256"
				}
			],
			"stateMutability": "view",
			"type": "function"
		},
		{
			"inputs": [],
			"name": "getResults",
			"outputs": [
				{
					"internalType": "uint256",
					"name": "",
					"type": "uint256"
				},
				{
					"internalType": "uint256",
					"name": "",
					"type": "uint256"
				}
			],
			"stateMutability": "nonpayable",
			"type": "function"
		}
	]
}